{
  "contractName": "Broadcaster",
  "abi": [
    {
      "inputs": [],
      "stateMutability": "nonpayable",
      "type": "constructor"
    },
    {
      "inputs": [],
      "name": "balance",
      "outputs": [
        {
          "internalType": "uint256",
          "name": "",
          "type": "uint256"
        }
      ],
      "stateMutability": "view",
      "type": "function",
      "constant": true
    },
    {
      "inputs": [],
      "name": "owner",
      "outputs": [
        {
          "internalType": "address payable",
          "name": "",
          "type": "address"
        }
      ],
      "stateMutability": "view",
      "type": "function",
      "constant": true
    },
    {
      "inputs": [],
      "name": "tip",
      "outputs": [],
      "stateMutability": "payable",
      "type": "function",
      "payable": true
    }
  ],
  "bytecode": "0x608060405234801561001057600080fd5b50336000806101000a81548173ffffffffffffffffffffffffffffffffffffffff021916908373ffffffffffffffffffffffffffffffffffffffff16021790555061037c806100606000396000f3fe6080604052600436106100345760003560e01c80632755cd2d146100395780638da5cb5b14610043578063b69ef8a81461006e575b600080fd5b610041610099565b005b34801561004f57600080fd5b5061005861018a565b60405161006591906101f5565b60405180910390f35b34801561007a57600080fd5b506100836101ae565b6040516100909190610229565b60405180910390f35b60008054906101000a900473ffffffffffffffffffffffffffffffffffffffff1673ffffffffffffffffffffffffffffffffffffffff163373ffffffffffffffffffffffffffffffffffffffff161415610128576040517f08c379a000000000000000000000000000000000000000000000000000000000815260040161011f906102a1565b60405180910390fd5b3373ffffffffffffffffffffffffffffffffffffffff166108fc349081150290604051600060405180830381858888f1935050505015801561016e573d6000803e3d6000fd5b50346001600082825461018191906102f0565b92505081905550565b60008054906101000a900473ffffffffffffffffffffffffffffffffffffffff1681565b60015481565b600073ffffffffffffffffffffffffffffffffffffffff82169050919050565b60006101df826101b4565b9050919050565b6101ef816101d4565b82525050565b600060208201905061020a60008301846101e6565b92915050565b6000819050919050565b61022381610210565b82525050565b600060208201905061023e600083018461021a565b92915050565b600082825260208201905092915050565b7f4f776e65722063616e6e6f7420746970207468656d73656c7665730000000000600082015250565b600061028b601b83610244565b915061029682610255565b602082019050919050565b600060208201905081810360008301526102ba8161027e565b9050919050565b7f4e487b7100000000000000000000000000000000000000000000000000000000600052601160045260246000fd5b60006102fb82610210565b915061030683610210565b9250827fffffffffffffffffffffffffffffffffffffffffffffffffffffffffffffffff0382111561033b5761033a6102c1565b5b82820190509291505056fea264697066735822122006d86eb2c934f3611003a04f37f61cd5b154e1424130976ee6c15727c51cac4d64736f6c634300080b0033",
  "immutableReferences": {},
  "source": "// SPDX-License-Identifier: MIT\npragma solidity ^0.8.6;\n\n/** \n  Contract:\n    *Use Chainlink to display current price of currencies interface\n    *\n**/\n\ninterface PriceFeed {\n  function getLatestPrice() external view returns(uint);\n}\n\ncontract Broadcaster {\n  // Assign deployer the owner of the contract and can receive payment\n  address payable public owner;\n  // Balance of this contract\n  uint public balance;\n\n\nconstructor() {\n    owner = payable (msg.sender);\n}\n\n// Function for tipping the broadcaster\nfunction tip() public payable {\n  // Checking that person tipping is not the owner\n  require(msg.sender != owner, \"Owner cannot tip themselves\");\n  // Send tip  to the contract\n  payable (msg.sender).transfer(msg.value);\n  // Updates balnce of the contract\n  balance += msg.value;\n}\n\n}\n",
  "sourcePath": "/Users/shih-yuhwang/Portfolio/Broadcaster/contracts/Broadcaster.sol",
  "compiler": {
    "name": "solc",
    "version": "0.8.11+commit.d7f03943.Emscripten.clang"
  },
  "schemaVersion": "3.4.3",
  "updatedAt": "2022-01-18T22:39:29.407Z",
  "networkType": "ethereum",
  "devdoc": {
    "kind": "dev",
    "methods": {},
    "version": 1
  },
  "userdoc": {
    "kind": "user",
    "methods": {},
    "version": 1
  }
}